:020000040800F2
:1000000060040020450100084D0100084F01000870
:1000100051010008530100085501000800000000CC
:100020000000000000000000000000005701000870
:1000300059010008000000005B0100086516000877
:100040005F0100085F0100085F0100085F01000810
:100050005F0100085F0100085F0100085F01000800
:100060005F0100085F0100085F0100085F010008F0
:100070005F0100085F0100085F0100085F010008E0
:100080005F0100085F0100085F0100085F010008D0
:100090005F0100085F0100085F0100085F010008C0
:1000A0005F0100085F0100085F0100085F010008B0
:1000B0005F0100085F0100085F0100085F010008A0
:1000C0005F0100085F0100085F0100085F01000890
:1000D0005F0100085F0100085F0100085F01000880
:1000E0005F0100085F0100085F0100085F01000870
:1000F0005F0100085F0100085F0100085F01000860
:100100005F0100085F0100085F0100085F0100084F
:100110005F0100085F0100085F0100085F0100083F
:100120005F0100085F0100085F0100085F0100082F
:10013000DFF80CD000F0C8FA004800474D32000844
:10014000600400200648804706480047FEE7FEE7B7
:10015000FEE7FEE7FEE7FEE7FEE7FEE7FEE7FEE777
:10016000CD16000831010008D2B201E000F8012BE1
:10017000491EFBD270470022F6E710B513460A4627
:1001800004461946FFF7F0FF204610BD2DE9FE4F4B
:1001900081EA030404F0004421F0004100944FF090
:1001A000000B23F0004350EA01045ED052EA03043E
:1001B0005BD0C3F30A54C1F30A552C44A4F2F334C0
:1001C0000194A0FB0254C1F3130141F48011C3F365
:1001D000130343F4801301FB024400FB034E840A23
:1001E000970A44EA815447EA8357A4FB07680295BB
:1001F0008D0A05FB07854FEA932C04FB0C54270559
:10020000029D4FEA065847EA1637B5EB08056EEB34
:10021000070C870E920E47EA811742EA8312A7FB6A
:100220000201B6EB0B0164EB00042B0D43EA0C3327
:100230005E1844EB1C50DA465146E7FB0201C5F359
:1002400013044FEA0B3343EA14534FEA0432019C80
:1002500043EA0603A4F10C040294009CCDE900B427
:1002600000F010F903B0BDE8F08F00200146F9E777
:100270002DE9F04D81EA030404F0004B21F0004524
:1002800014464FF0000A23F0004150EA050220D046
:1002900054EA01021DD0C5F30A570246C5F3130301
:1002A000C1F31300C1F30A5640F4801543F48013E0
:1002B000A7EB0608101BD64608F2FD3873EB0500C5
:1002C00002D308F1010801E092185B41B8F1000F78
:1002D00003DA00200146BDE8F08D00204FF48011C4
:1002E000064684460EE0171B73EB050705D3121B69
:1002F00063EB050306434CEA010C49084FEA300062
:1003000092185B4150EA0107EDD152EA030012D086
:1003100082EA040083EA0501084305D0101BAB41C3
:1003200006D20122002306E000224FF0004302E043
:100330006FF0010253101AEB06004CEB085110EB62
:100340000A0041EB0B01BDE8F04D00F08EB80EB590
:10035000C10F80EAE0700844CA07002140F233432D
:100360008DE80E000A460B4600F08CF803B000BD85
:100370000EB540F2334102910021CDE900110A4649
:100380000B4600F07FF803B000BDC1F30A5210B570
:10039000C1F3130140F2FF3341F480119A4201DAB4
:1003A000002010BD40F233439A42A2F2334203DCF4
:1003B000524200F04AF810BD904010BD30B50B46D7
:1003C000014600202022012409E021FA02F59D4285
:1003D00005D303FA02F5491B04FA02F52844151E59
:1003E000A2F10102F1DC30BD2DE9F05F05460020ED
:1003F00092469B4688460646814640241BE0284696
:1004000041464746224600F020F853465A46C01A55
:10041000914110D311461846224600F067F92D1A73
:1004200067EB01084F4622460120002100F05EF9EB
:1004300017EB00094E41201EA4F10104DFDC484601
:1004400031462A464346BDE8F09F202A04DB203A85
:1004500021FA02F00021704721FA02F3D040C2F1E4
:100460002002914008431946704710B5002B08DA66
:10047000401C41F1000192185B411A4301D120F068
:10048000010010BD2DE9F04D92469B4611B1B1FA25
:1004900081F202E0B0FA80F22032904600F026F9B4
:1004A00004460F4640EA0A0041EA0B0153465A4609
:1004B000084313D0114653EA010019D0C8F1400295
:1004C0005046FFF7C2FF05460E4650465946424683
:1004D00000F00CF9084305D0012004E0204639461D
:1004E000BDE8F08D0020054346EAE0762C43374313
:1004F0000A986305E40AA0EB08000022FD0A44EA1A
:1005000047540A3002D500200146E9E701051019D9
:100510006941DDE9084500196941BDE8F04DA4E7EE
:100520002DE9FE4F804681EA0300C00F0C46009083
:1005300021F0004123F00045B8EB0200A94105D2AB
:100540004046214690461C460B46024623F000409A
:10055000104347D0270DC7F30A00C3F30A51029096
:10056000401A019040286BDAC3F3130040F4801B5B
:100570000098924620B10023D2EB030A63EB0B0BE9
:1005800001985946C0F14002504600F0AFF80646C7
:100590000D4650465946019A00F0B7F810EB080096
:1005A0006141002487EA115284EAE7731A4340D07C
:1005B000009A62B3019A012A4FEA075215DC001B28
:1005C00061EB02014FF0004202EA0752CDE900421E
:1005D000001C41F5801132462B46FFF753FF03B054
:1005E000BDE8F08F40462146F9E7001B61EB0201B0
:1005F000001C41F5801300185B412018A2F500177C
:1006000047EB030140EAD570B6196D4111E06D0862
:100610004FEA360645EAC0754FEA0752001B61EB08
:100620000201001C41F5801149084FEA3000001911
:10063000514132462B4603B0BDE8F04FFFF715BFDE
:100640000098012240000023D0EB020263EBE0732C
:10065000009821464FEAE074B8EB000061EB04011A
:10066000E9E783F000435BE781F0004158E7C1F31D
:100670000A52C1F3130140F2FF3341F480119A4250
:1006800002DA00200146704740F233439A42A2F258
:10069000334202DC5242FFF7D8BE00F027B8000018
:1006A00030B5002904DB4FF00044404264EB010107
:1006B000002B04DB4FF00044524264EB03039942E9
:1006C00008BF904230BD0000064C074D06E0E068D0
:1006D00040F0010394E8070098471034AC42F6D389
:1006E000FFF72AFD703F0008903F0008202A04DB36
:1006F000203A00FA02F1002070479140C2F1200335
:1007000020FA03F3194390407047202A06DBCB17E9
:10071000203A41FA02F043EAE07306E041FA02F3BC
:10072000D040C2F120029140084319467047002191
:1007300007E042F6E06100BF0A00A1F1010399B2AF
:10074000FAD10200A0F1010398B2F2D17047000083
:1007500008B50121202000F079FE4FF4C050ADF81B
:10076000000004208DF8030003208DF80200694684
:10077000014800F0A0FA08BD001401400EB5FFF7D3
:10078000E7FF0121084600F041FE4FF0804000F0F5
:10079000E5FF4FF6FF70ADF804000020ADF8000053
:1007A000ADF80600ADF802008DF8080069464FF07C
:1007B000804001F0A5F900231A4619464FF0804009
:1007C00001F0C0F800214FF0804001F096F90121BE
:1007D000880700F0B7FF0121C80200F037FE11487A
:1007E00000F0BCFF4FF6FF70ADF804000020ADF83C
:1007F0000000ADF80600ADF802008DF8080069466B
:10080000084801F07DF900231A461946054801F011
:1008100099F80021034801F070F90121014800F026
:1008200091FF0EBD002C014010B504462146A41CCA
:100830000122002000F0F0F92146A41C0122022030
:1008400000F0EAF92146A41C0122042000F0E4F99A
:100850002146A41C0122062000F0DEF910BD000094
:1008600010B500247848FFF7DFFF77480088774904
:100870000988081A76490988884242DC724800884B
:1008800072490988081A724909884942884238DB46
:100890006D4840886F490988081A6D49098888425F
:1008A0002FDC694840886B490988081A684909881B
:1008B0004942884225DB6448808867490988081ACC
:1008C0006349098888421CDC5F488088624909883E
:1008D000081A5F4909884942884212DB5A48C08891
:1008E0005E490988081A5A490988884209DC56482D
:1008F000C0885A490988081A5549098849428842D6
:100900000EDA5748006808B9012000E00020544979
:1009100008600A20FFF70BFF524890F9000010BD55
:100920004F4800685049C1F8A0014748008847492E
:100930000988081A4D490988884202DD44F00104FB
:1009400002E04FF6FE7004403F4840884149098864
:10095000081A46490988884202DD44F0020402E090
:100960004FF6FD700440384880883B490988081AD2
:100970003E490988884202DD44F0040402E04FF653
:10098000FB7004403048C08834490988081A374948
:100990000988884202DD44F0080402E04FF6F7704F
:1009A0000440102C49D2DFE804F0082C30343848D9
:1009B00048483C484848404848442A48007803286A
:1009C00003D10420274908701AE0264890F9000056
:1009D00010F1030F03D1FC202249087010E02148D8
:1009E0000078012803D100201E49087008E01D4846
:1009F00090F90000B0F1FF3F02D1002019490870C2
:100A00001CE0FD201749087018E0FF201549087008
:100A100014E0FE201349087010E00120114908700D
:100A20000CE003200F49087008E002200D4908700F
:100A300004E000200B49087000E000BF00BF094837
:100A400090F900006BE70000540000204C000020EB
:100A50001E0000204E000020500000205200002008
:100A6000A08121425C000020008021421C00002067
:100A700010B586B002F002FB012205A97F2000F02C
:100A8000CBF8BDF8140043F25401884202D0002094
:100A900006B010BD40F2D641082000F0F0F840F258
:100AA000D641092000F0EBF840F2D6410A2000F0D0
:100AB000E6F840F2D6410B2000F0E1F842F6F07182
:100AC0000C2000F0DCF842F6F0710D2000F0D7F8B1
:100AD00042F6F0710E2000F0D2F842F6F0710F20CD
:100AE00000F0CDF80A21102000F0C9F80A211120E9
:100AF00000F0C5F80A21122000F0C1F80A211320E5
:100B000000F0BDF841F20501142000F0B8F841F200
:100B10000501152000F0B3F841F20501162000F0A0
:100B2000AEF841F20501172000F0A9F841F2016189
:100B30001A2000F0A4F84CF20C211B2000F09FF8C2
:100B40004FF4C0611C2000F09AF84FF4C0411E2001
:100B500000F095F84FF4C0411F2000F090F84FF4DA
:100B6000C041202000F08BF84FF4C041212000F05C
:100B700086F803A8FFF758FE002430E001A8FFF72D
:100B800053FEBDF80C10BDF80420881800EBD0719E
:100B9000C1F34F01ADF80C10BDF80E10BDF80620E2
:100BA000881800EBD071C1F34F01ADF80E10BDF8FD
:100BB0001010BDF80820881800EBD071C1F34F0168
:100BC000ADF81010BDF81210BDF80A20881800EB1F
:100BD000D071C1F34F01ADF81210601C84B21E2C0D
:100BE000CCDBBDF80C0008490880BDF80E000749B1
:100BF0000880BDF8100006490880BDF812000549BC
:100C00000880012044E700004C0000204E00002036
:100C100050000020520000202DE9F04107460C460C
:100C2000154602F0BBFA542002F086FA02F0EAFA06
:100C3000384602F081FA02F0E5FA02F0AFFA5520E8
:100C400002F07AFA02F0DEFA002612E0012002F049
:100C500047FA208020884FF6FF7101EA00202080AB
:100C6000002002F03DFA218808442080A41C701C5A
:100C7000C6B2AE42EADB02F0AFFABDE8F08170B571
:100C800005460C4602F08AFA542002F055FA02F0AA
:100C9000B9FA284602F050FA02F0B4FA200A02F03B
:100CA0004BFA02F0AFFAE0B202F046FA02F0AAFA0A
:100CB00002F092FA70BD2DE9F041024600250026AF
:100CC000002000230024002791F803C00CF00F053A
:100CD00091F803C00CF0100CBCF1000F03D091F898
:100CE00002C04CEA050591F800C0BCF1000F31D0FC
:100CF000146800202BE04FF0010C0CFA00F3B1F85F
:100D000000C00CEA03069E4220D183004FF00F0C76
:100D10000CFA03F7BC4305FA03FC4CEA040491F80F
:100D200003C0BCF1280F06D14FF0010C0CFA00FCF7
:100D3000C2F814C00AE091F803C0BCF1480F05D115
:100D40004FF0010C0CFA00FCC2F810C0401C08283F
:100D5000D1D31460B1F800C0BCF1FF0F34DD54688A
:100D600000202EE000F1080C4FF0010808FA0CF307
:100D7000B1F800C00CEA03069E4221D183004FF077
:100D80000F0C0CFA03F7BC4305FA03FC4CEA04040D
:100D900091F803C0BCF1280F05D100F1080C08FA46
:100DA0000CF8C2F8148091F803C0BCF1480F07D1C9
:100DB00000F1080C4FF0010808FA0CF8C2F8108096
:100DC000401C0828CED35460BDE8F081F0B50A4637
:100DD000002300240021002500F00046B6F1004F5A
:100DE00002D11D4EF16901E01B4E7168C0F303454D
:100DF00083B200F44016B6F5401F08D121F07061AF
:100E0000154E766826F07066134F7E6012E000F48F
:100E10008016B6F5801F06D1032606FA05F4A14315
:100E200041F0706106E0460D360103FA06F6B14363
:100E300041F0706122B1460D360103FA06F63143E6
:100E400000F00046B6F1004F02D1034EF16101E01F
:100E5000014E7160F0BD000000000140024600201C
:100E600093680B400BB1012000E000207047416106
:100E7000704701617047000010B540210748FFF737
:100E8000F8FF80210548FFF7F4FF80210348FFF7B2
:100E9000EEFF40210148FFF7EAFF10BD00140140BA
:100EA00010B540210548FFF7E4FF80210348FFF714
:100EB000DEFF80210148FFF7DCFF10BD0014014078
:100EC00010B540210348FFF7D4FF40210148FFF748
:100ED000CEFF10BD001401401448806940F00400AA
:100EE000124988610846806940F0400088611048D6
:100EF000006820F00F000E4908600846006840F0C6
:100F0000080008600B48006820F47F200949086049
:100F10000846006840F40820086006480C30006865
:100F200040F0180003490C3108607047001002407F
:100F3000000801400018014010B5044614B101201A
:100F4000234908702248007858B310212148FFF740
:100F500085FF50B108211F48FFF780FF28B101210C
:100F60001D48FFF77BFF01281BD10A20FFF7DFFB9D
:100F700000201749087010211648FFF76FFF08B9C5
:100F8000012010BD08211348FFF768FF08B90220AF
:100F9000F7E701211048FFF761FF012815D1032071
:100FA000EFE710210B48FFF759FF01280DD1082169
:100FB0000848FFF753FF012807D101210648FFF732
:100FC0004DFF10B90120024908700020D9E7000048
:100FD0002D000020001801400008014018488069D9
:100FE00040F00800164988610846806940F04000DA
:100FF00088611448006820F47000124908600846AF
:10100000006840F4401008600E480C30006840F062
:1010100020000C490C3108600B48006820F4700077
:10102000094908600846006840F440100860064816
:101030000C30006840F0200003490C310860704714
:1010400000100240000C01400018014008B50121C9
:10105000102000F0FBF94FF47060ADF80000102094
:101060008DF8030003208DF8020069460148FFF760
:1010700022FE08BD0010014010B5FFF7E7FF002079
:101080000449087001204870002088708880C8805A
:1010900010BD00003800002008B50121082000F034
:1010A000D5F901210848FFF791FE3020ADF8000086
:1010B00018208DF8030003208DF8020069460348CC
:1010C000FFF7F9FD08BD000000081A00000C014000
:1010D00000B587B0FFF7E0FF0121022000F096F98C
:1010E00040F2E730ADF814004720ADF810000020C2
:1010F000ADF81600ADF812008DF8180004A91648D6
:1011000000F0FEFC6020ADF800000120ADF8020008
:101110000020ADF808006420ADF8060069460E48CE
:1011200000F032FC08210C4800F07AFC6420ADF895
:1011300006006946084800F07DFC0821064800F0DA
:10114000CBFC0121044800F0F1FA0121024800F033
:10115000F9FA07B000BD00000004004070B500249B
:1011600018E004F1B000002100F043F90021084626
:1011700000F03FF90021102000F03BF9002505E0C8
:101180000121002000F035F9681CC5B2802DF7DB85
:10119000601CC4B2082CE4DB70BD000008B501215E
:1011A0004FF4947000F052F94FF4FC70ADF8000069
:1011B00010208DF8030003208DF80200694648488E
:1011C000FFF779FD4FF4FC714548FFF752FE03200D
:1011D000ADF8000069464348FFF76DFD0321414823
:1011E000FFF747FE4FF40040ADF8000069463E4867
:1011F000FFF761FD4FF400413B48FFF73AFEC8207E
:10120000FFF795FA0021AE2000F0F3F80021084620
:1012100000F0EFF80021102000F0EBF80021402052
:1012200000F0E7F80021B02000F0E3F80021812071
:1012300000F0DFF80021FF2000F0DBF80021A12002
:1012400000F0D7F80021A62000F0D3F80021A82054
:1012500000F0CFF800213F2000F0CBF80021C8209B
:1012600000F0C7F80021D32000F0C3F800210846A1
:1012700000F0BFF80021D52000F0BBF8002180204D
:1012800000F0B7F80021D82000F0B3F800210520C5
:1012900000F0AFF80021D92000F0ABF80021F120D8
:1012A00000F0A7F80021DA2000F0A3F800211220B6
:1012B00000F09FF80021DB2000F09BF80021302097
:1012C00000F097F800218D2000F093F80021142001
:1012D00000F08FF80021AF2000F08BF808BD00006F
:1012E00000140140001001400020014070B5044688
:1012F0000D4605F1B000002100F07BF8102141EA15
:101300001410002100F075F804F00F00002100F027
:1013100070F870BD2DE9F04707460E469046994695
:1013200000250024A8F12000C5B27F2F02DD002790
:10133000B01CC6B2B9F1100F24D131463846FFF7C0
:10134000D5FF002408E004EB0511194A505C012187
:1013500000F04FF8601CC4B2082CF4DB701CC1B262
:101360003846FFF7C3FF002409E004EB05110831FC
:101370000F4A505C012100F03CF8601CC4B2082CFC
:10138000F3DB12E031463846FFF7B0FF00240AE0F5
:1013900005EB4501074A02EB4101085D012100F020
:1013A00028F8601CC4B2062CF2DBBDE8F087000010
:1013B00080390008583700082DE9F04104460F46EF
:1013C0001546984600260FE0AA5D4346394620465A
:1013D000FFF7A0FF04F10800C4B2782C02DD00245E
:1013E000B81CC7B2701CC6B2A85D0028ECD1BDE81D
:1013F000F08170B504460D461DB1E0B200F0B4FFB7
:1014000002E0E0B200F09AFF70BD000029B1064A88
:10141000D2690243044BDA6104E0034AD269824391
:10142000014BDA61704700000010024029B1064A02
:1014300012690243044B1A6104E0034A12698243B1
:10144000014B1A61704700000010024029B1064AA2
:1014500092690243044B9A6104E0034A9269824311
:10146000014B9A61704700000010024029B1064A02
:10147000D2680243044BDA6004E0034AD268824334
:10148000014BDA60704700000010024070B504465E
:101490000D4607480088204481B2064800F029FB29
:1014A00005480088284481B2024800F024FB70BD42
:1014B00030000020000400403400002010B500F08F
:1014C00001F810BD0CB50020019000903348006871
:1014D00040F480303149086000BF3048006800F4B3
:1014E000003000900198401C0190009818B90198B4
:1014F000B0F5A06FF1D12948006800F4003010B1B8
:101500000120009001E0002000900098012843D1C4
:101510002348006840F01000214908600846006830
:1015200020F0030008600846006840F002000860F0
:101530001A484068194948600846406848600846AB
:10154000406840F4806048600846406820F47C10A1
:1015500048600846406840F4E81048600846006863
:1015600040F08070086000BF0C48006800F0007018
:101570000028F9D00948406820F003000749486076
:101580000846406840F00200486000BF03484068D9
:1015900000F00C000828F9D10CBD0000001002403A
:1015A0000020024010B500F027F8FFF717FD01F00A
:1015B00063FBFFF7E3F8FFF7F1FDFFF78DFCFFF7A3
:1015C00087FDFFF759FD00BFFFF752FA0028FBD057
:1015D00010BD4FF0E020006920F001004FF0E02145
:1015E000086170474FF0E020006940F001004FF0C3
:1015F000E02108617047000030B51748006842F2EA
:101600001072B0FBF2F1B1F1807F01D301201DE037
:1016100021F07F40401E4FF0E022506150170F2212
:10162000002807DA13071D0E0C4B00F00F04241FCF
:101630001D5503E013071C0E094B1C5400BF00206E
:101640004FF0E022906107201061002008B100BF38
:10165000FEE7FFF7BEFF30BD0000002018ED00E000
:1016600000E400E014480088401C00B212490880E1
:1016700012480068401C114908600F48B0F900008A
:101680001E2805DC00200C49088001200C49087048
:101690000A48006842F2107188420BD300200749C3
:1016A000086002200749087007480088401C00B203
:1016B00005490880704700004600002048000020CF
:1016C00038000020440000202400002010B51348FA
:1016D000006840F001001149086008464068104960
:1016E00008400E494860084600680E4908400B490A
:1016F00008600846006820F48020086008464068BA
:1017000020F4FE0048604FF41F008860FFF7D6FE0B
:101710004FF000600449086010BD00000010024056
:101720000000FFF8FFFFF6FE08ED00E021B102889F
:1017300042F08002028004E002884FF67F731A4074
:101740000280704721B1028842F00102028004E069
:1017500002884FF6FE731A400280704710B50446A7
:101760006848844208D10121C014FFF77FFE0021A0
:10177000E014FFF77BFEC4E0B4F1804F08D10121F3
:101780000846FFF753FE00210120FFF74FFEB8E0A7
:101790005D48844208D101210220FFF747FE002165
:1017A0000220FFF743FEACE05848844208D10121F3
:1017B0000420FFF73BFE00210420FFF737FEA0E0E6
:1017C0005348844208D101210820FFF72FFE002151
:1017D0000820FFF72BFE94E04E48844208D10121F7
:1017E0001020FFF723FE00211020FFF71FFE88E0E6
:1017F0004948844208D101212020FFF717FE00212B
:101800002020FFF713FE7CE04448844208D10121E8
:101810004014FFF72BFE00216014FFF727FE70E055
:101820003F48844209D10121C804FFF71FFE00216F
:101830004FF40020FFF71AFE63E03A48844209D1D2
:1018400001210805FFF712FE00214FF48010FFF779
:101850000DFE56E03448844209D101214805FFF7C6
:1018600005FE00214FF40010FFF700FE49E02F486D
:10187000844208D101214020FFF7D8FD00214020FB
:10188000FFF7D4FD3DE02A48844208D101218020A1
:10189000FFF7CCFD00218020FFF7C8FD31E025488F
:1018A000844208D101218015FFF7C0FD0021A01559
:1018B000FFF7BCFD25E02048844209D1012108043E
:1018C000FFF7D4FD00214FF48030FFF7CFFD18E083
:1018D0001A48844209D101214804FFF7C7FD0021BD
:1018E0004FF40030FFF7C2FD0BE01548844208D1E9
:1018F00001218804FFF7BAFD00214FF48020FFF793
:10190000B5FD10BD002C014000040040000800405F
:10191000000C004000100040001400400034014062
:10192000004C0140005001400054014000180040AC
:10193000001C0040002000400040014000440140E5
:1019400000480140F0B504460D4616461F463B468A
:1019500032462946204600F005F8208940F48040B0
:101960002081F0BD30B50C4600210189C9B24FF687
:10197000FF7505EA0325154325432943018130BD41
:101980000146888C7047000070B5002400220023B7
:10199000058C4FF6FE7635400584028C8388048BD7
:1019A0004FF68F752C40B51E2C400D882C43751EAC
:1019B0002A400D892A434D882A43144DA8420BD052
:1019C000134DA84208D0134DA84205D0124DA8428D
:1019D00002D0124DA84213D14FF6F7752A404D8917
:1019E0002A434FF6FB752A408D882A434FF6FF6540
:1019F0002B404FF6FF552B408D892B43CD892B4330
:101A000083800483CD888586028470BD002C0140CC
:101A100000340140004001400044014000480140C2
:101A20000A460021018B4FF6F773194011430183D9
:101A30007047000070B5002400220023058C4FF68B
:101A4000EF7635400584028C8388048B48F6FF7559
:101A50002C404FF6FF452C400D884FF6FF7606EAE6
:101A600005252C434FF6DF752A400D8906EA05153A
:101A70002A434D8806EA05152A43154DA84202D08F
:101A8000144DA8421DD14FF67F752A404D894FF65F
:101A9000FF7606EA05152A434FF6BF752A408D8862
:101AA00006EA05152A434FF6FF352B404FF2FF7526
:101AB0002B408D8906EA85052B43CD8906EA8505ED
:101AC0002B4383800483CD880587028470BD00008A
:101AD000002C0140003401400A460021018B4FF2E6
:101AE000FF7319404FF6FF7303EA02231943018382
:101AF0007047818670470187704781847047000076
:101B0000002202881D4B98420ED01D4B98420BD0EC
:101B1000B0F1804F08D01B4B984205D01A4B984229
:101B200002D01A4B984204D14FF68F731A404B885B
:101B30001A43174B984207D0164B984204D04FF6E1
:101B4000FF431A40CB881A4302808B8883850B8819
:101B500003850A4B98420BD0094B984208D00E4B94
:101B6000984205D00D4B984202D00D4B984201D1BE
:101B70000B7A03860123838270470000002C01400A
:101B8000003401400004004000080040000C004008
:101B9000001000400014004000400140004401409B
:101BA000004801402DE9F041FE48007808B9BDE841
:101BB000F0810020FB49087008464078012813D1C5
:101BC0000102F948FFF753F94FF40071F648FFF7A7
:101BD00050F94FF48061F448FFF749F94FF4006180
:101BE000F148FFF746F931E0EE4890F90100B0F115
:101BF000FF3F14D14FF48071EB48FFF73AF94FF4EF
:101C00000071E948FFF733F94FF48061E648FFF7C8
:101C100030F94FF40061E448FFF729F916E0E14894
:101C2000407898B94FF48071DF48FFF720F94FF4FE
:101C30000071DD48FFF71BF94FF48061DA48FFF7C8
:101C400016F94FF40061D848FFF711F9FEF708FEC6
:101C5000D4498870D5480078042878D1084690F98E
:101C60000200001D092873D2DFE800F005192D419C
:101C7000575C738699000020CA498880CC48006868
:101C8000FEF765FB0646CB4ACB4BFEF77FFA0446D0
:101C9000FEF77BFB404200B2C249C88093E00020BF
:101CA000C0498880C2480068FEF751FB0646002202
:101CB000C24BFEF76BFA0446FEF767FB404200B2E8
:101CC000B849C8807FE00020B6498880B8480068DD
:101CD000FEF73DFB0646BA4ABA4BFEF757FA0446F2
:101CE000FEF753FB404200B2AE49C8806BE06FF094
:101CF0000900AC498880AE480068FEF728FB06461C
:101D00004FF03332B04BFEF741FA0446FEF73DFB8D
:101D1000404200B2A349C88055E00020A149888014
:101D2000C88050E0A2480068FEF711FB06464FF05D
:101D30003332A54BFEF72AFA0446FEF726FB404253
:101D400000B2984988806FF00900C8803BE03BE012
:101D500038E097480068FEF7FAFA0646984A994B29
:101D6000FEF714FA0446FEF710FB404200B28D491C
:101D700088800020C88026E08D480068FEF7E7FADA
:101D8000064600228D4BFEF701FA0446FEF7FDFAE7
:101D9000404200B2834988800020C88013E08B480D
:101DA0000068FEF7D4FA0646824A834BFEF7EEF946
:101DB0000446FEF7EAFA404200B27A4988800020E1
:101DC000C88000E000BF70E278480078052866D13E
:101DD000744890F90200001D09285ED2DFE800F087
:101DE000051920272F343C434A0000206D49888084
:101DF0006F480068FEF7ABFA0646714A744BFEF76F
:101E0000C5F90446FEF7C1FA404200B26549C880F0
:101E100044E00020634988806FF05E00C8803DE0A8
:101E20000020604988806FF04100C88036E06FF084
:101E300009005C4988806FF04100C8802EE00020D6
:101E400058498880C88029E06FF041005549888052
:101E50006FF00900C88021E06FF04100514988808F
:101E60000020C8801AE06FF05E004E498880002094
:101E7000C88013E055480068FEF769FA0646504AE4
:101E8000534BFEF783F90446FEF77FFA404200B257
:101E9000444988800020C88000E000BF05E2434834
:101EA0000078062866D13F4890F90200001D0928F5
:101EB0005ED2DFE800F0051920272F343C434A00AA
:101EC0000020384988803A480068FEF740FA064604
:101ED0003B4A3F4BFEF75AF90446FEF756FA40429A
:101EE00000B23049C88044E01E202E4988806FF03F
:101EF0005E00C8803DE000202A4988806FF04100E4
:101F0000C88036E06FF00900264988806FF04100F4
:101F1000C8802EE0502023498880C88029E06FF0D7
:101F20004100204988806FF00900C88021E06FF0EF
:101F300041001C4988800020C8801AE06FF05E00D4
:101F4000184988801E20C88013E020480068FEF7EA
:101F5000FEF906461A4A1E4BFEF718F90446FEF72C
:101F600014FA404200B20F4988800020C88000E087
:101F700000BF9AE10D48007807287CD1094890F904
:101F80000200001D092874D2DFE800F005333A4052
:101F9000464B51575E000020024988800448006883
:101FA00018E000003800002000100140260000204A
:101FB00034000020CDCCCCCCCCCCEC3F0000E03FBA
:101FC0009A9999999999D93F3333D33F300000209A
:101FD0009999E93FFEF7BBF90646B84AB84BFEF7B8
:101FE000D5F80446FEF7D1F9404200B2B549C880A1
:101FF00040E01E20B34988806FF05E00C88039E061
:102000005020B04988800F20C88033E03C20AD4983
:1020100088801420C8802DE07820AA498880C88054
:1020200028E01420A74988803C20C88022E00F20A7
:10203000A44988805020C8801CE06FF05E00A14950
:1020400088801E20C88015E09F480068FEF77FF951
:1020500006469A4A9A4BFEF799F80446FEF795F918
:10206000404200B2974988800020C88002E002E028
:10207000FFE700BF19E195480078082860D1914832
:1020800090F90200001D092858D2DFE800F0051978
:1020900020262C31373D440000208A4988808C4816
:1020A0000068FEF754F90646844A854BFEF76EF841
:1020B0000446FEF76AF9404200B28249C8803EE019
:1020C0001E20804988806FF05E00C88037E0502075
:1020D0007C4988800F20C88031E03C207949888085
:1020E0001420C8802BE0642076498880C88026E0D0
:1020F0001420744988803C20C88020E00F2071495A
:1021000088805020C8801AE06FF05E006D4988809A
:102110001E20C88013E06C480068FEF718F90646D8
:10212000664A674BFEF732F80446FEF72EF9404246
:1021300000B2644988800020C88000E000BFB4E09D
:10214000604890F90200001D092872D2DFE800F013
:1021500005192D41575C72859800002059498880E7
:102160005B480068FEF7F3F806465A4A5A4BFEF7FA
:102170000DF80446FEF709F9404200B25149C88003
:1021800092E000204F49888051480068FEF7DFF850
:1021900006460022514BFDF7F9FF0446FEF7F5F81D
:1021A000404200B24749C8807EE00020454988800F
:1021B00047480068FEF7CBF80646404A484BFDF713
:1021C000E5FF0446FEF7E1F8404200B23D49C88011
:1021D0006AE06FF009003B4988803D480068FEF7DF
:1021E000B6F806464FF033323E4BFDF7CFFF0446BC
:1021F000FEF7CBF8404200B23249C88054E00020DC
:1022000030498880C8804FE031480068FEF79FF869
:1022100006464FF03332334BFDF7B8FF0446FEF766
:10222000B4F8404200B2274988806FF00900C880A6
:102230003AE038E026480068FEF789F806461F4A6B
:10224000274BFDF7A3FF0446FEF79FF8404200B27C
:102250001C4988800020C88026E01D480068FEF7E1
:1022600076F8064600221D4BFDF790FF0446FEF768
:102270008CF8404200B2134988800020C88013E0E7
:1022800011480068FEF763F80646124A124BFDF744
:102290007DFF0446FEF779F8404200B20949888084
:1022A0000020C88000E000BF00BF064AB2F9061057
:1022B000B2F90400FFF7EAF800BF78E49A99999917
:1022C0009999E93F380000203000002026000020C6
:1022D00034000020CDCCCCCCCCCCEC3F0000E03F97
:1022E0009999D93F3333D33F2DE9F04105462C4628
:1022F00040211148FEF7BBFD002619E0274607F0F4
:102300008007802F04D180210B48FEF7B2FD03E047
:1023100080210948FEF7ABFD6006040E4021064807
:10232000FEF7A7FD40210448FEF7A1FD701CC6B2D0
:10233000082EE3DBBDE8F0810014014010B504462F
:10234000FEF79AFD7820FFF7CFFFFEF7B9FD0020DA
:10235000FFF7CAFFFEF7B4FD2046FFF7C5FFFEF703
:10236000AFFDFEF79DFD10BD10B50446FEF784FDE0
:102370007820FFF7B9FFFEF7A3FD4020FFF7B4FF79
:10238000FEF79EFD2046FFF7AFFFFEF799FDFEF733
:1023900087FD10BD0FB4084B10B504A902AA03981D
:1023A00000F0CEF8044602A9002000F060FC2046B0
:1023B00010BC5DF814FB00006F2C000802E008C898
:1023C000121F08C1002AFAD170477047002001E0AF
:1023D00001C1121F002AFBD1704700002DE9FF5FE9
:1023E000DDE90220010DDDF838B0024318D044F6D3
:1023F0001050A1F2FF3141430D140F98012820D055
:10240000A5EB0B00401C5FEA000A4FF00004474EAA
:10241000DFF81C91A046504616D5CAF1000728E007
:102420000F98012443A2012808D0002100980F9B97
:10243000C0E90021C0E90243BDE8FF9F6FEA0B013C
:10244000F4E7CBF10000DEE7074612E0F80707D01B
:102450002246334640464946FDF798FE8046894667
:102460002246334610461946FDF790FE04460E46B6
:102470007F10002FEAD1DDE90201BAF1000F4246D8
:102480004B4602DAFDF782FE01E0FDF7F1FE04465D
:102490000E460022284BFEF703F903D84FF0FF3019
:1024A000014607E00022254B20463146FEF738F86A
:1024B000FEF7DDF8102409E0002C0ADB0A220023D5
:1024C000FDF792FF019B30321A55641E50EA01025B
:1024D000F2D1641C019AC4F1110314440F9A012A29
:1024E00003D0012208430DD10AE0084304D00020A4
:1024F0004FF0110B0F9080E7A3EB0B056D1E0DE065
:102500005B4504DD4FF0000205F1010504E003DA4C
:102510004FF00002A5F10105002AECD000980F99B8
:10252000C0E90231C0E9004586E700000000244010
:102530000000F03F300000000000F0430000E03FEA
:102540002DE9FF4F95B09B468946064600250FE2D0
:10255000252877D100242746F84A0121059400E078
:10256000044316F8013F203B01FA03F01042F7D173
:1025700030782A2811D06FF02F033078A0F1300284
:10258000092A16D8059A44F0020402EB820203EBF2
:1025900042021044761C0590EFE759F8042B05928F
:1025A000002A03DA504244F40054059044F0020437
:1025B000761C30782E2816D116F8010F44F004044A
:1025C0002A280DD06FF02F023078A0F13003092BAC
:1025D00009D807EB870302EB4303C718761CF3E720
:1025E00059F8047B761C30786C280FD006DC4C2818
:1025F00017D068280DD06A2814D104E0742810D0B0
:102600007A280FD10DE044F400140AE044F4801459
:1026100001E044F440147278824202D104F580143F
:10262000761C761C307866280BD013DC582877D0BF
:1026300009DC002875D04528F6D04628F4D0472874
:102640001AD19DE118E0632835D0642879D0652837
:1026500012D195E1702873D008DC6728F1D0692881
:102660006FD06E280DD06F2806D1B5E073282CD01E
:10267000752875D0782874D05A46179990476D1CE4
:1026800075E1C4F30250022809D003280DD0D9F80F
:10269000001004280DD00D6009F1040967E1D9F894
:1026A0000010EA17C1E90052F6E7D9F800100D80D2
:1026B000F2E70D70F0E719F8041B8DF80010002008
:1026C0008DF80100EA46012003E059F804AB4FF011
:1026D000FF3061074FF0000102D40DE008F1010165
:1026E0008846B9420FDA8045F8DB1AF8081000294D
:1026F000F4D108E008F1010188468142FADB1AF8BA
:1027000008100029F6D105985B46A0EB0807214682
:102710003846179A00F094FA284400EB080507E0C1
:102720004DE029E10DE01AF8010B5A461799904740
:10273000B8F10108F7D25B4621463846179A13E1F3
:1027400042E00A220092C4F302524FF0000A022A29
:1027500008D059F804CB032A4FEAEC710AD00DE0F7
:1027600029E02AE009F1070121F00702F2E802C19D
:10277000914609E00FFA8CFC4FEAEC71042A03D170
:102780004FFA8CFC4FEAEC71002907DA0A46002167
:10279000DCF1000C61EB02012D2202E0220504D5E0
:1027A0002B228DF80420012203E0E20701D0202231
:1027B000F7E7904659E00A2102E010220DE01021CF
:1027C0004FF0000A00910BE010224FF0000A44F095
:1027D00004040827009203E008224FF0000A009248
:1027E000C4F30252022A05D059F804CB0021032A6F
:1027F00008D009E009F1070121F00702F2E802C15F
:10280000914605E01FFA8CFC042A01D10CF0FF0C64
:102810004FF00008220728D5702806D0009B83F0CF
:10282000100353EA0A0305D00EE040228DF804207D
:10283000012208E05CEA010206D030228DF8042073
:102840008DF8050002229046009B83F0080353EAAE
:102850000A030AD15CEA010201D1620705D53022E0
:102860008DF804204FF001087F1E582804D034A0B2
:1028700003900EA802900DE036A0F9E7534660469B
:10288000009AFDF7B1FD84460398825C0298401ED1
:10289000029002705CEA0100F0D1029806A9081AC1
:1028A00000F1200A600702D524F4803400E00127FB
:1028B000574502DDA7EB0A0000E0002000EB0A010B
:1028C000009005984144401A0590E00306D45B4609
:1028D0002146179A059800F0B3F90544002706E051
:1028E00001A85A46C05D179990476D1C7F1C47454B
:1028F000F6DBE0030CD55B462146179A059800F0FD
:102900009FF9054404E030205A46179990476D1C02
:102910000099481E00900029F5DC08E00298029911
:102920005A460078491C0291179990476D1CBAF1DC
:102930000001AAF1010AF1DC65E1000009280100AB
:102940003031323334353637383961626364656625
:1029500000000000303132333435363738394142E7
:10296000434445460000000000F058F90544761C39
:10297000307800287FF4ECAD19B02846BDE8F08F20
:10298000620700D4062709F1070222F0070CFCE8D1
:102990000223E14603F000485FEA080C02D00FF280
:1029A000702C0DE05FEA045C02D50FF2682C07E0A2
:1029B0005FEAC47C02D00FF2602C01E0AFF2700C31
:1029C0004FF0FF3823F00043CDF850C065280CD0FD
:1029D00006DC452809D046281DD047283DD13DE0DA
:1029E000662818D067287ED138E00021112F01DB3E
:1029F000112000E0781CCDE9000106A90EA8FFF720
:102A0000EDFCDDE90F010E9A03910021009207F120
:102A1000010A04914DE04FF000400097CDE901100C
:102A200006A90EA8FFF7DAFCDDE90F0203920E9B60
:102A300011990022DDF80CA00093049211B9791CC1
:102A400000EB010AB7EB0A0004D4C0F1FF3007F134
:102A5000010A0490AAEB0700019044E0012F00DA7C
:102A600001270021112F01DD112000E03846CDE9BA
:102A7000000106A90EA8FFF7B1FCDDE90F010E9ACF
:102A80000391002104910092BA4621070CD40399C6
:102A9000514500DA8A46BAF1010F05DD009AAAF124
:102AA0000101515C302908D0B84202DA10F1040F5C
:102AB00006DA0121CDE9011015E0AAF10101E9E7EB
:102AC000002805DC049901440491AAEB000102E00E
:102AD000411C514500DD8A460499401A401C019072
:102AE0004FF000400290200704D40198504501DBCC
:102AF000CDF8048000208DF84F0002980DF14F07AB
:102B0000B0F1004F25D02B200E9002984FF0020814
:102B100000280CDA404202902D200E9007E00A2196
:102B20000298FDF74BFC3031029007F8011DB8F117
:102B30000001A8F10108F2DC02980028EFD1791E0B
:102B40000E980870307800F0200040F0450007F83B
:102B5000020D12A8C01B00F107081498007800B1FC
:102B6000012000EB0A01019801EBE0710598414456
:102B7000401A401E0590E00306D45B462146179A92
:102B8000059800F05DF805441498007818B15A468D
:102B9000179990476D1CE00324D55B462146179A90
:102BA000059800F04DF805441CE00498002807DB68
:102BB000DDE90301884203DD0098405C179901E0DC
:102BC000179930205A469047049805F10105401C9A
:102BD00004900198401E019004D12E205A46179966
:102BE00090476D1CBAF10001AAF1010ADDDC05E095
:102BF00017F8010B5A46179990476D1CB8F1000160
:102C0000A8F10108F4DC5B462146179A0598ABE66B
:102C10002D0000002B000000200000002DE9F041F5
:102C2000044600251E461746880404D405E03946AC
:102C30002020B0476D1C641EF9D52846BDE8F08100
:102C40002DE9F041044600251E469046C80301D5F3
:102C5000302700E02027880404D505E041463846A7
:102C6000B0476D1C641EF9D52846BDE8F0810A689E
:102C7000531C0B60107070470A48806940F00800D0
:102C8000084988610848006820F00F00064908607C
:102C90000846006840F0030008600020034908600F
:102CA0007047000000100240040C0140A081214246
:102CB00010B50020FEF740F90446002C6FD0012C1F
:102CC00016D0022C6CD0032C11D10220954908702B
:102CD000954800680A309449086008460068322820
:102CE00001DD00200860FEF739FA00F0BFFB17E1B4
:102CF0008D4800681E283AD005DC48B10A2818D053
:102D000014287BD126E028285FD0322876D168E0CD
:102D10008648007804280BD1854800680A38844921
:102D2000086008460068502802DC4FF461700860B3
:102D300064E07E48007804280BD17E4800680A3899
:102D40007C49086008460068502802DC4FF4617036
:102D5000086053E078480068401F774908600846DB
:102D60000068062802D84FF42F70086046E06F48CC
:102D70000078042803D108206C49087020E06B48D3
:102D80000078082803D107206849087018E06748D0
:102D90000078072805D106206449087010E0C0E0DB
:102DA00032E062480078062803D105205F490870A8
:102DB00006E05E480078052802D104205B490870CF
:102DC000FEF7CCF900F052FB18E05C480088401E8A
:102DD0005A49088008460088012801DC1420088030
:102DE0000CE0574800880F3855490880084600888D
:102DF0001E2802DC4FF4FA70088000BF00BFFEF707
:102E0000ADF900F033FB8BE0474800681E283BD04B
:102E100005DC48B10A2818D014287BD126E02828E0
:102E20005ED0322876D167E04048007804280BD184
:102E30003F4800680A303E49086008460068B0F51F
:102E4000617F01DD6420086064E038480078042870
:102E50000BD1384800680A303649086008460068D7
:102E6000B0F5617F01DD6420086053E032480068FE
:102E7000401D3149086008460068B0F57A6F02D3FA
:102E80004FF4C870086045E028480078042803D152
:102E90000520264908701EE024480078052803D143
:102EA00006202249087016E020480078062803D141
:102EB00007201E4908700EE01C480078072803D13F
:102EC00008201A49087006E018480078082802D13E
:102ED000042016490870FEF741F900F0C7FA19E01E
:102EE00016480088401C1549088008460088642858
:102EF00001DB012008800DE0114800880F301049E7
:102F0000088008460088B0F57A7F02DB4FF4E17054
:102F1000088000BF00BFFEF721F900F0A7FA00BF4C
:102F200000BF10BD2C000020200000202600002043
:102F30003000002034000020180000201C00002079
:102F40001E00002030B58DB04FF08040FEF718FD18
:102F500005462A48FEF714FD2C1804EBD4704010E7
:102F6000274908600846006826490968884243D313
:102F70004FF480712448FDF77AFF4FF40071224826
:102F8000FDF775FF4FF480611F48FDF770FF4FF4A8
:102F900000611D48FDF76BFF00211C48FEF7D2FBC6
:102FA00000F06EFBFEF715FBFEF7D8F8FEF7D6F83B
:102FB00034216846FDF7DFF8114815A1026868461C
:102FC000FFF7E8F910236A4600210846FEF7F4F9F6
:102FD0001248B0F9002012A16846FFF7DBF9102370
:102FE0006A4602210020FEF7E7F90F4800680F4902
:102FF000C1F8A00100BFFEE70DB030BD002C0140BC
:1030000014000020180000200010014000040040BF
:1030100064697374616E63653A256400240000205E
:1030200054696D653A256400A081214200802142E7
:1030300010B54FF400610C48FDF719FF00F016F8C9
:103040004FF480610848FDF714FF00F00FF84FF4CB
:1030500080610548FDF70BFF00F008F84FF40061B0
:103060000148FDF706FF10BD000C0140002001E003
:10307000411CC8B20A28FBDB7047000008B50121DB
:103080000820FEF7E3F94FF44060ADF8000003209C
:103090008DF8020014208DF8030069460248FDF700
:1030A0000AFE00F099F808BD000C014010B54FF47D
:1030B00000610A48FDF7DDFEFFF7D8FF4FF480619D
:1030C0000648FDF7D6FEFFF7D1FF4FF480610348B5
:1030D000FDF7CDFEFFF7CAFF10BD0000000C014058
:1030E00070B505460024002619E06006040E4FF472
:1030F00080611048FDF7BDFEFFF7B8FF4FF4006197
:103100000C48FDF7ABFE08B1601CC4B24FF48061FF
:103110000848FDF7ACFEFFF7A9FF701CC6B2082EE9
:10312000E3DB15B9FFF7C2FF01E0FFF781FF20469F
:1031300070BD0000000C014070B50446002528E079
:1031400004F0800028B14FF400611348FDF791FEB0
:1031500004E04FF400611048FDF789FEFFF786FF99
:103160004FF480610C48FDF784FEFFF77FFF4FF4BA
:1031700080610948FDF77BFE072D04D14FF4006103
:103180000548FDF776FE6006040EFFF76FFF681C2A
:10319000C5B2082DD4DB70BD000C014010B54FF452
:1031A00000610C48FDF765FE4FF480610948FDF7AA
:1031B00060FEFFF75BFF4FF400610648FDF757FE26
:1031C000FFF754FF4FF480610248FDF750FEFFF710
:1031D0004DFF10BD000C014010B54FF400610848D0
:1031E000FDF745FE4FF480610548FDF742FEFFF70D
:1031F0003DFF4FF400610248FDF73BFE10BD0000AB
:10320000000C014010B54FF400610F48FDF731FE8E
:10321000FFF72CFF4FF480610B48FDF72AFEFFF704
:1032200025FF4FF400610848FDF718FE08B101249E
:1032300000E000244FF480610348FDF718FEFFF71B
:1032400015FF204610BD0000000C0140FEF7AAF952
:103250002148006808B9012000E000201E490860EC
:1032600000F040F811E000F0F1F8FFF721FD0A202E
:10327000FDF75DFA00F0EAF800F0F8F8022802D154
:1032800000F0E4F802E000F0E1F8ECE700BF00F045
:10329000DDF84FF47A70FDF74AFA00200F49086014
:1032A000FEF7A0F90C48006808B9012000E00020F2
:1032B000094908600EE0FEF775FCFFF743FE084879
:1032C0000078022804D103200549087000F0D8F9DD
:1032D00000F048F8EFE7000094812142140000203C
:1032E0004400002010B5FDF739FF10230EA2002185
:1032F0000846FEF761F810230FA202210020FEF716
:103300005BF8102310A204210020FEF755F84FF4BB
:103310007A70FDF70CFAFDF721FF10230EA20221AF
:103320000020FEF749F810BD48656C6C6F20576FA0
:10333000726C642100000000547261636B696E67F7
:103340002043617200000000506C65617365205776
:10335000616974696E670000496E697420204F4B83
:103360002100000000B58DB034216846FCF703FF52
:1033700010212948FDF772FD50B108212648FDF7BC
:103380006DFD28B101212548FDF768FD002841D1D8
:103390004FF480712248FDF76AFD4FF40071204818
:1033A000FDF765FD4FF480611D48FDF760FD4FF4AA
:1033B00000611B48FDF75BFD00211A48FEF7C2F9CA
:1033C00000F05EF9FEF705F9FDF7C8FE3421684606
:1033D000FCF7D1FE144815A102686846FEF7DAFF33
:1033E00010236A4600210846FDF7E6FF1248B0F9AF
:1033F000002012A16846FEF7CDFF10236A46022185
:103400000020FDF7D9FF0F4800680F49C1F8A0015F
:1034100000BFFEE70DB000BD0018014000080140EC
:10342000001001400004004014000020646973741F
:10343000616E63653A2564002400002054696D655F
:103440003A256400A081214200802142044800788E
:10345000042804D0DC200349086003490860704751
:1034600026000020300000203400002000B585B088
:1034700014216846FCF77FFE4D48017810234DA2C9
:103480000020FDF799FF4C484CA102686846FEF702
:1034900081FF10236A4600210820FDF78DFF4B486D
:1034A0004BA102686846FEF775FF10236A460221A9
:1034B0000820FDF781FF4A484AA102686846FEF7E6
:1034C00069FF10236A4600210820FDF775FF484870
:1034D0000078001F05281DD2DFE800F003080D1258
:1034E000170044A16846FEF755FF18E045A168465D
:1034F000FEF750FF13E047A16846FEF74BFF0EE0D2
:1035000048A16846FEF746FF09E04AA16846FEF773
:1035100041FF04E04BA16846FEF73CFF00BF00BF3F
:10352000FFF794FF10236A4602210820FDF744FFAD
:103530004848028848A16846FEF72CFF10236A46D7
:1035400004210820FDF738FF4748028847A1684654
:10355000FEF720FF10236A4606210820FDF72CFF06
:1035600045480078022820D1102344A200210846B3
:10357000FDF722FF102341A202210020FDF71CFFCE
:1035800010233EA204210020FDF716FF10233BA2CA
:1035900006210020FDF710FF102338A2082100208B
:1035A000FDF70AFF022005B000BD0320FBE7000085
:1035B000200000203E000000300000204C45465412
:1035C0002053504545443A25640000003400002053
:1035D00052494748542053504545443A2564000019
:1035E000180000204D6178207761793A2564000049
:1035F000260000205370656564204D6F64653A4174
:1036000055544F005370656564204D6F64653A539F
:103610004C4F57005370656564204D6F64653A4D9B
:10362000494400005370656564204D6F64653A46F7
:10363000415354005370656564204D6F64653A4D85
:103640004F5354005370656564204D6F64653A4173
:1036500054554F001C00002056616C69642044657D
:10366000663A2564000000001E000020436F696E6A
:10367000204465663A2564002C00002020000000EC
:103680002DE9F04F87B0142102A8FCF774FDFDF777
:1036900065FD2248B0F9002021A102A8FEF77AFEBC
:1036A000102302AA00210820FDF786FE1F4820A152
:1036B000026802A8FEF76EFE102302AA0A21082063
:1036C000FDF77AFE1548B0F90000FCF740FE04460D
:1036D0000D4616480068FCF74BFE80460022184B4A
:1036E000FCF754FD064622462B46FCF7C1FD8246F8
:1036F0000022134BFCF74AFD02460B46CDE90001C0
:1037000010A102A8FEF746FE102302AA1E210820DF
:10371000FDF752FE07B0BDE8F08F00002400002046
:1037200054494D453A256420530000001400002000
:1037300044697374616E63653A256420434D0000EB
:103740000000F03F53706565643A25352E326620DF
:10375000434D2F5300000000000000000000000057
:10376000002F000000000700070000147F147F14E2
:1037700000242A7F2A120062640813230036495568
:10378000225000000503000000001C224100000040
:1037900041221C000014083E08140008083E0808D6
:1037A000000000A060000008080808080000606031
:1037B0000000002010080402003E5149453E000070
:1037C000427F4000004261514946002141454B3152
:1037D000001814127F10002745454539003C4A491E
:1037E0004930000171090503003649494936000690
:1037F0004949291E000036360000000056360000F8
:103800000008142241000014141414140000412272
:10381000140800020151090600324959513E007C4A
:103820001211127C007F49494936003E4141412234
:10383000007F4141221C007F49494941007F09091D
:103840000901003E4149497A007F0808087F0000CD
:10385000417F4100002040413F01007F0814224188
:10386000007F40404040007F020C027F007F040840
:10387000107F003E4141413E007F09090906003E9C
:103880004151215E007F09192946004649494931C5
:103890000001017F0101003F4040403F001F2040E8
:1038A000201F003F4038403F0063140814630007A6
:1038B0000870080700615149454300007F414100FD
:1038C00000552A552A55000041417F00000402019D
:1038D000020400404040404000000102040000207B
:1038E00054545478007F48444438003844444420B9
:1038F00000384444487F00385454541800087E0966
:1039000001020018A4A4A47C007F0804047800002D
:10391000447D4000004080847D00007F10284400EA
:103920000000417F4000007C04180478007C0804FB
:10393000047800384444443800FC24242418001837
:10394000242418FC007C0804040800485454542023
:1039500000043F444020003C4040207C001C2040AC
:10396000201C003C4030403C004428102844001CEF
:10397000A0A0A07C004464544C44141414141414E7
:103980000000000000000000000000000000000037
:10399000000000F8000000000000003330000000CC
:1039A00000100C06100C06000000000000000000D3
:1039B00040C07840C0784000043F04043F04040045
:1039C000007088FC08300000001820FF211E000055
:1039D000F008F000E018000000211C031E211E006A
:1039E00000F00888700000001E21232419272110F0
:1039F00010160E0000000000000000000000000093
:103A0000000000E018040200000000071820400039
:103A100000020418E0000000004020180700000029
:103A2000404080F0804040000202010F010202008D
:103A3000000000F0000000000101011F0101010071
:103A4000000000000000000080B0700000000000D6
:103A5000000000000000000000010101010101015F
:103A600000000000000000000030300000000000F6
:103A700000000000806018040060180601000000CB
:103A800000E010080810E000000F102020100F00C8
:103A9000001010F8000000000020203F202000004F
:103AA00000700808088870000030282422213000A7
:103AB00000300888884830000018202020110E00AF
:103AC0000000C02010F8000000070424243F240058
:103AD00000F80888880808000019212020110E002D
:103AE00000E0108888180000000F112020110E003F
:103AF00000380808C83808000000003F0000000037
:103B00000070880808887000001C222121221C00F7
:103B100000E010080810E0000000312222110F0020
:103B2000000000C0C00000000000003030000000B5
:103B30000000008000000000000080600000000025
:103B4000000080402010080000010204081020003E
:103B50004040404040404000040404040404040089
:103B6000000810204080000000201008040201001E
:103B7000007048080808F00000000030360100001E
:103B8000C030C828E810E0000718272423140B00D1
:103B90000000C038E0000000203C2302022738204B
:103BA00008F8888888700000203F202020110E002F
:103BB000C030080808083800071820202010080026
:103BC00008F808080810E000203F202020100F000F
:103BD00008F88888E8081000203F202023201800DB
:103BE00008F88888E8081000203F20000300000043
:103BF000C03008080838000007182020221E0200E4
:103C000008F808000008F808203F210101213F20A2
:103C1000000808F8080800000020203F20200000CD
:103C200000000808F8080800C08080807F000000BD
:103C300008F888C028180800203F200126382000F6
:103C400008F8080000000000203F2020202030005D
:103C500008F8F800F8F80800203F003F003F200077
:103C600008F830C00008F808203F200007183F007F
:103C7000E01008080810E0000F10202020100F00AE
:103C800008F808080808F000203F210101010000A1
:103C9000E01008080810E0000F18242438504F00E6
:103CA00008F8888888887000203F2000030C3020A6
:103CB00000708808080838000038202121221C00E4
:103CC000180808F8080818000000203F200000002D
:103CD00008F808000008F808001F202020201F0016
:103CE0000878880000C83808000007380E01000076
:103CF000F80800F80008F800033C0700073C030040
:103D0000081868808068180820302C03032C3020A5
:103D10000838C800C83808000000203F2000000014
:103D200010080808C838080020382621202018006C
:103D3000000000FE020202000000007F4040400040
:103D4000000C30C000000000000000010638C00078
:103D500000020202FE000000004040407F00000020
:103D60000000040202020400000000000000000045
:103D70000000000000000000808080808080808043
:103D8000000202040000000000000000000000002B
:103D900000008080808000000019242222223F2021
:103DA00008F8008080000000003F112020110E0064
:103DB0000000008080800000000E112020201100F3
:103DC000000000808088F800000E112020103F20A5
:103DD0000000808080800000001F22222222130029
:103DE000008080F0888888180020203F2020000074
:103DF0000000808080808000006B94949493600029
:103E000008F8008080800000203F210000203F2033
:103E100000809898000000000020203F2020000033
:103E2000000000809898000000C08080807F000023
:103E300008F8000080808000203F24022D30200000
:103E4000000808F8000000000020203F20200000AB
:103E50008080808080808000203F20003F20003FC5
:103E60008080008080800000203F210000203F20D3
:103E70000000808080800000001F202020201F0084
:103E8000808000808000000080FFA12020110E00B3
:103E90000000008080808000000E112020A0FF80A4
:103EA000808080008080800020203F212000010051
:103EB00000008080808080000033242424241900A6
:103EC000008080E0808000000000001F20200000B3
:103ED0008080000000808000001F202020103F20F4
:103EE000808080000080808000010E300806010084
:103EF00080800080008080800F300C030C300F0029
:103F000000808000808080000020312E0E31200053
:103F1000808080000080808080818E701806010083
:103F200000808080808080000021302C22213000A1
:103F300000000000807C020200000000003F4040C2
:103F400000000000FF00000000000000FF00000073
:103F50000002027C800000000040403F00000000A2
:103F6000000601010202040400000000000000003D
:103F7000903F00080000002060000000BC23000803
:103F8000F03F00086000002000040000CC2300087F
:103F900000A24A0400000000000000000102030427
:103FA0000607080900000000CB02000005007800A9
:103FB00032000000000004000000000003010000C7
:103FC0002C0100002C010000000000000000000097
:103FD00000000000030000000000000000000000DE
:103FE00000000000000000000000000000000000D1
:0400000508000131BD
:00000001FF
